:020000040800F2
:1000000038DE0120C10100085B230008312100080F
:1000100059230008B70700089B45000800000000AE
:100020000000000000000000000000006B2300083A
:100030000108000800000000692300086D23000883
:10004000DB010008DB010008DB010008DB01000820
:10005000DB010008DB01000803080008DB010008E1
:10006000DB010008DB010008DB010008DB01000800
:10007000DB010008DB010008DB010008DB010008F0
:10008000DB010008DB010008DB010008DB010008E0
:10009000DB010008DB010008DB010008DB010008D0
:1000A000DB010008DB010008DB010008DB010008C0
:1000B000DB01000815240008DB010008DB01000853
:1000C000DB010008DB010008DB010008DB010008A0
:1000D000DB010008DB010008DB010008DB01000890
:1000E000DB010008DB010008DB010008DB01000880
:1000F000DB010008DB010008DB010008DB01000870
:10010000DB010008DB010008DB010008DB0100085F
:10011000DB010008DB010008DB010008DB0100084F
:10012000DB010008DB010008DB010008DB0100083F
:10013000DB010008DB010008DB010008DB0100082F
:10014000DB010008DB010008DB010008DB0100081F
:10015000DB010008DB010008DB010008DB0100080F
:10016000DB010008DB010008DB010008DB010008FF
:10017000DB0100085D230008DB010008000000002F
:10018000DB010008DB010008DB010008DB010008DF
:10019000DB010008DB010008DB010008DB010008CF
:1001A000DB010008DB010008DB010008DFF80CD0F0
:1001B00000F080FA004800478160000838DE012026
:1001C0000648804706480047FEE7FEE7FEE7FEE7F1
:1001D000FEE7FEE7FEE7FEE7FEE7FEE7F92300089D
:1001E000AD0100082DE9F05F0546002092469B46D0
:1001F00088460646814640241BE02846414647463D
:10020000224600F08FF853465A46C01A914110D347
:1002100011461846224600F076F82D1A67EB0108C1
:100220004F4622460120002100F06DF817EB00092F
:100230004E41201EA4F10104DFDC484631462A4627
:100240004346BDE8F09F40EA01039B0703D009E065
:1002500008C9121F08C0042AFAD203E011F8013BB2
:1002600000F8013B521EF9D27047D2B201E000F80B
:10027000012B491EFBD270470022F6E710B513464A
:100280000A4604461946FFF7F0FF204610BD421EFD
:1002900012F8013F002BFBD111F8013B02F8013BA2
:1002A000002BF9D17047421C10F8011B0029FBD12B
:1002B000801A704700F0004230F000400AD0C10DB3
:1002C00001F56071C0F3160042EA0151C20840070F
:1002D0001143704700200146704730B50B46014678
:1002E00000202022012409E021FA02F59D4205D3D5
:1002F00003FA02F5491B04FA02F52844151EA2F17F
:100300000102F1DC30BD202A04DB203A00FA02F1C0
:10031000002070479140C2F1200320FA03F31943F3
:1003200090407047202A04DB203A21FA02F0002195
:10033000704721FA02F3D040C2F1200291400843F5
:10034000194670472DE9FE4F804681EA0300C00F31
:100350000C46009021F0004123F00045B8EB02006C
:10036000A94105D24046214690461C460B4602460E
:1003700023F00040104347D0270DC7F30A00C3F312
:100380000A510290401A019040286BDAC3F313001F
:1003900040F4801B0098924620B10023D2EB030A60
:1003A00063EB0B0B01985946C0F140025046FFF732
:1003B000AAFF06460D4650465946019A00F08CF9B0
:1003C00010EB08006141002487EA115284EAE773C8
:1003D0001A4340D0009A62B3019A012A4FEA0752A9
:1003E00015DC001B61EB02014FF0004202EA0752EC
:1003F000CDE90042001C41F5801132462B4600F049
:100400008CF903B0BDE8F08F40462146F9E7001BA8
:1004100061EB0201001C41F5801300185B412018BC
:10042000A2F5001747EB030140EAD570B6196D41FC
:1004300011E06D084FEA360645EAC0754FEA0752EB
:10044000001B61EB0201001C41F5801149084FEAD5
:1004500030000019514132462B4603B0BDE8F04F41
:1004600000F04CB90098012240000023D0EB0202BA
:1004700063EBE073009821464FEAE074B8EB0000AC
:1004800061EB0401E9E783F000435BE781F00041A1
:1004900058E72DE9FE4F81EA030404F0004421F0FF
:1004A000004100944FF0000B23F0004350EA010498
:1004B0005ED052EA03045BD0C3F30A54C1F30A5579
:1004C0002C44A4F2F3340194A0FB0254C1F31301B1
:1004D00041F48011C3F3130343F4801301FB02447E
:1004E00000FB034E840A970A44EA815447EA835783
:1004F000A4FB076802958D0A05FB07854FEA932C3C
:1005000004FB0C542705029D4FEA065847EA1637AC
:10051000B5EB08056EEB070C870E920E47EA8117C4
:1005200042EA8312A7FB0201B6EB0B0164EB000465
:100530002B0D43EA0C335E1844EB1C50DA4651464F
:10054000E7FB0201C5F313044FEA0B3343EA1453EC
:100550004FEA0432019C43EA0603A4F10C0402941E
:10056000009CCDE900B400F0D8F803B0BDE8F08FEE
:1005700000200146F9E72DE9F04D81EA030404F07B
:10058000004B21F0004514464FF0000A23F00041D3
:1005900050EA050220D054EA01021DD0C5F30A57E3
:1005A0000246C5F31303C1F31300C1F30A5640F426
:1005B000801543F48013A7EB0608101BD64608F2FB
:1005C000FD3873EB050002D308F1010801E0921831
:1005D0005B41B8F1000F03DA00200146BDE8F08D61
:1005E00000204FF48011064684460EE0171B73EB83
:1005F000050705D3121B63EB050306434CEA010C08
:1006000049084FEA300092185B4150EA0107EDD1EA
:1006100052EA030012D082EA040083EA050108438B
:1006200005D0101BAB4106D20122002306E00022B8
:100630004FF0004302E06FF0010253101AEB060086
:100640004CEB085110EB0A0041EB0B01BDE8F04DFB
:1006500000F054B8C1F30A52C1F3130140F2FF3362
:1006600041F480119A4202DA00200146704740F2BC
:1006700033439A42A2F2334202DC5242FFF752BEA7
:10068000FFF741BE30B5041E71F1000404DB4FF0EA
:100690000044404264EB0101141E73F1000405DBC9
:1006A0001C464FF00043524263EB0403994208BFDB
:1006B000904230BD064C074D06E0E06840F0010373
:1006C00094E8070098471034AC42F6D3FFF772FD68
:1006D000DC650008FC650008202A06DBCB17203A01
:1006E00041FA02F043EAE07306E041FA02F3D04037
:1006F000C2F12002914008431946704710B5141EFC
:1007000073F1000408DA401C41F1000192185B41CA
:100710001A4301D120F0010010BD2DE9F04D9246A1
:100720009B4611B1B1FA81F202E0B0FA80F22032B8
:100730009046FFF7E8FD04460F4640EA0A0041EA0A
:100740000B0153465A46084313D0114653EA0100A1
:1007500019D0C8F140025046FFF7E4FD05460E46A9
:10076000504659464246FFF7CEFD084305D00120CA
:1007700004E020463946BDE8F08D0020054346EAF6
:10078000E0762C4337430A986305E40AA0EB08009F
:100790000022FD0A44EA47540A3002D500200146EF
:1007A000E9E7010510196941DDE9084500196941CA
:1007B000BDE8F04DA2E7FEE710B500224FEA0201C6
:1007C00000EB8203521CC3F880130F2AF8D30022D7
:1007D0004FF400738418521C84F81C119A42F9D308
:1007E0000170417001228270C0F8BC130276402370
:1007F0008371417680F81C1380F81D23002010BD02
:100800007047012000F05AB870470022AFF3008013
:1008100030B50E4B054601205C7A002C14D1587A75
:100820001C54587A03EB800045605D7A03F10800A0
:100830002A54587A421C5A72303008703A20487054
:100840002F208870CC70002030BD00002CD80120F3
:1008500070B5044600F03AF90546601C02D0044821
:100860000078044400F032F9401BA042FAD370BD76
:100870005400002070B50E4C6088B0F5FA7F16D297
:1008800094ED0F0AF7EE000A012130EE200A094824
:1008900084ED0F0A00F008F905460221064800F031
:1008A00003F9854201D1012000E00220E06070BD23
:1008B000000000200000024000080240044910B57A
:1008C0000A68024202D00860FFF7D4FF10BD0000A2
:1008D000143C01402DE9F84F00224FF00108032598
:1008E0004FF00F0E0B6808FA02F42340A3426ED1BA
:1008F0004E68012E05D0022E03D0112E01D0122EEB
:1009000012D186684FEA420C05FA0CF7BE43CF6855
:1009100007FA0CF7374387604668A6430C79C4F39F
:100920000014944034434460C668570005FA07FC3D
:100930008C6826EA0C06BC403443C4604C68022C28
:1009400001D0122C13D1D40800EB8404A346D4F8B0
:10095000209054074FEAD46A0EFA0AF629EA0609EB
:100960000E6906FA0AF646EA0906CBF82060046822
:100970000E7924EA0C0406F00306BE402643066006
:100980004C68E4006FD53B4C266846F480462660F0
:10099000246822F0030604F480440094364C344466
:1009A000A446D4F808489607360F0EFA06F7BC435B
:1009B000324FB84201D100272EE0314FB84201D169
:1009C000012729E02F4FB84202D1022724E04AE054
:1009D0002D4FB84201D103271EE02C4FB84201D160
:1009E000042719E02A4FB84201D1052714E0294F06
:1009F000B84201D106270FE0274FB84201D107279F
:100A00000AE0264FB84201D1082705E0244FB8423A
:100A100001D1092700E00A27B7402743CCF808781E
:100A2000204E34684F689C43FF0300D51C4334605C
:100A30001C4E361D34684F689C43BF0300D51C43D1
:100A40003460184E083634684F689C43FF0200D566
:100A50001C433460134E0C3634684F689C43BF020D
:100A600000D51C433460521C102AFFF43BAFBDE894
:100A7000F88F00004438024000300140000002407E
:100A80000004024000080240000C02400010024036
:100A90000014024000180240001C024000200240E6
:100AA00000240240003C01400069084000D00120C1
:100AB0007047426931EA020200D10904816170473E
:100AC0000AB1816170470904FBE7000001488068B2
:100AD0007047000054000020D0F8C00202F0E8B8CF
:100AE000D0F8C00202F0F9B8006803F0A7BA0068B5
:100AF00003F0A8BA01EB810100EBC10090F85C00A3
:100B0000704701EB810100EBC100C06C704710B56C
:100B1000044690F8B802012809D0012084F8B802F0
:100B2000206803F09AFA002084F8B80210BD022071
:100B300010BD2DE9FE430546DDE90B7095F8B8427E
:100B4000DDF828C0012C1CD001EB81044FF0010915
:100B500005EBC40485F8B892002684F83D6084F85B
:100B60003830A4F8400084F8391084F83F7002F05F
:100B70007F0884F83A805FEA026805D584F83B90E4
:100B800004E00220BDE8FE8384F83B6084F83CC0AA
:100B9000CDF800C0CDE90170286803F0BFFA85F8F0
:100BA000B862EFE770472DE9F04101EB8104DDE920
:100BB00007E700EBC404DDF818C084F83B200226E8
:100BC00084F83F30BCF1000F0AD084F84260002561
:100BD00053B1012B2BD0022B0FD0032B13D10CE0E0
:100BE000032584F84250F2E7BCF1010F0BD152B952
:100BF000D7B9012284F8512003E0AAB194F850201B
:100C0000AAB184F84260C4E911E784F85C50E56455
:100C100084F8391084F85D50027C04F138010068D2
:100C2000BDE8F04103F0F6BA94F85120E8E784F803
:100C30004250E8E72DE9F04104460068064603F01B
:100C400008FA01286FD1206803F013FC00286AD04D
:100C5000206803F00EFC800203D521684FF40010D9
:100C60004861206803F005FCC00203D521684FF4F9
:100C700080104861206803F0FCFB400103D5216827
:100C80004FF080604861206803F0F3FB800702D5D5
:100C9000216802204861206803F0EBFB800010D53A
:100CA000D6F8400420F02E00C6F840042046FFF796
:100CB00017FF0121206803F0C1FB21684FF00050AD
:100CC0004861206803F0D5FBC00102D5204601F041
:100CD0009AF9206803F0CDFB000705D5204600F007
:100CE000CCF8216808204861206803F0C2FB80012D
:100CF00024D5206803F08AFA074600254FF0010842
:100D000015E000BF05F00F0108FA01F038420DD0E0
:100D100006EB4510D0F80005E9B20004204603D5E3
:100D200000F039FF02E01CE001F04BF86D1CA068F8
:100D3000A842E7D821684FF000704861206803F0AE
:100D400098FBC043C0060CD42068816921F01001D3
:100D50008161204601F0B4F92068816941F01001F9
:100D60008161BDE8F08170B58AB0040005D094F8C7
:100D7000B9022568002618B107E001200AB070BD4D
:100D800084F8B862204600F027F8032084F8B902FE
:100D9000E86BC00500D42661206803F0F9F804F17F
:100DA000100128220D466846FFF74DFA94E80F001F
:100DB00003F098F80121206803F086FB28222946D9
:100DC0006846FFF740FA94E80F0003F0CBFA0120E1
:100DD00084F8B9020020D1E770B586B0044614212A
:100DE0006846FFF749FA1C492068884231D11B4CFC
:100DF0000025206840F0020020602068184E00F0B6
:100E0000020005904FF40050CDE9000569463046D8
:100E10000295FFF75FFD4FF4404000900220CDE9BE
:100E20000105032003900C20049069463046FFF72B
:100E300051FD206840F0005020602068002200F042
:100E40000050059011464D2000F0ACF84D2000F008
:100E50009BF806B070BD000000000440303802402E
:100E600000040240D0F8C00201F0C8BFD0F8C002B0
:100E700001F0C8BF006803F00EBBD0F8C00201F05B
:100E800076BF10B5044690F8B80201280DD00120B5
:100E900084F8B802206803F0A9F80121206803F063
:100EA0008FF8002084F8B80210BD022010BD10B5E4
:100EB000044690F8B802012809D0012084F8B8024D
:100EC000206803F019FB002084F8B80210BD02204E
:100ED00010BD0000024881680278114481607047AB
:100EE000540000200B4810B5016841F40071016006
:100EF000016841F480610160016841F48071016022
:100F0000032000F06FF8002000F006F800F024F84D
:100F1000002010BD003C024070B50D4D04464FF45A
:100F20007A712878B1FBF0F00A490968B1FBF0F05A
:100F300000F0E2FA48B9102C07D200222146501ED8
:100F400000F030F800206C6070BD012070BD000022
:100F5000540000204C0000200A4808B5016841F404
:100F600080410160006800F4804000900548001F47
:100F7000016841F080510160006800F080500090ED
:100F800008BD000044380240002809DB00F01F02C1
:100F9000012191404009800000F1E020C0F80011DB
:100FA00070470000F0B40E4B1B680C46C3F30223DD
:100FB000C3F10705042D00D90425191D072901D205
:100FC000002300E0DB1E012606FA05F1491E214040
:100FD00099409E40761E16403143F0BC03F0DEBBC4
:100FE0000CED00E0064900F0070208684FF6FF0329
:100FF000184040EA0220034A10430860704700008E
:101000000CED00E00000FA052DE9F0470E46050062
:1010100065D0DFF81481D8F80000F7B200F00F00B7
:10102000B04207D288F80070D8F8000000F00F0036
:10103000B04254D128683D4C810712D5400703D5F2
:10104000206840F4E05020602878000703D520682D
:1010500040F4604020602068A96820F0F000084358
:1010600020602878C0072DD03049686808390128E9
:1010700012D0022813D0032811D00968890700294B
:101080002DDA216821F0030101432160FFF71EFDE5
:10109000814641F2883A0EE009688903EFE7096862
:1010A0008901ECE7FFF712FDA0EB0901514502D9D8
:1010B0000320BDE8F0872068696800F00C00B0EB01
:1010C000810FEFD1D8F80010404601F00F01B14276
:1010D00007D90770006800F00F00B04201D001206E
:1010E000E7E72878400705D52068E96820F4E05054
:1010F000084320602878000706D52068296920F475
:10110000604040EAC100206000F018F82168084AF9
:10111000C1F30311515CC8400649086006480068E5
:10112000FFF7FAFE0020C4E7003C02400838024006
:101130002C6500084C00002058000020154810B510
:10114000006810F00C02144813D04110042A0FD08C
:10115000082A0ED10F4C241F2268236802F03F0298
:101160005B0207D52068C0F38810A0FB010106E0F0
:10117000084610BD2168C1F38811A1FB00010023BE
:10118000FFF730F82168C1F30141491C4900B0FB69
:10119000F1F010BD083802400024F4002DE9F84FAA
:1011A000040076D02078DFF838A3CE4DC00749D0B0
:1011B000DAF800105046C1F38101012908D0006817
:1011C000C0F3810002280AD1281D0068400206D51C
:1011D0002868800336D560680028E2D032E0606875
:1011E000B0F5803F10D0B0F5A02F286810D020F4C3
:1011F00080302860286820F4802028606068A0B1D2
:10120000FFF764FC06460CE0286840F48030F4E701
:1012100040F480202860F7E7FFF758FC801B642823
:1012200073D828688003F7D50CE0FFF74FFC06461B
:1012300005E000BFFFF74AFC801B6428F0D828684F
:101240008003F7D42078DFF8A08280074FF00009F0
:101250003ED5DAF80010504611F00C0F09D00068A6
:10126000C0F3810002280BD19D48001F0068400296
:1012700006D42868800715D5E068012809D111E057
:10128000E068B8B10120C8F80000FFF71FFC06466F
:1012900005E020E1FFF71AFC801B0228C0D828686F
:1012A0008007F7D52868216920F0F80040EAC100DE
:1012B00028600DE0C8F80090FFF708FC064604E03F
:1012C000FFF704FC801B02281FD828688007F7D48A
:1012D0002078000722D5824E844861696C3671B14E
:1012E00001210160FFF7F2FB074604E0FFF7EEFB88
:1012F000C01B022809D830688007F7D50EE0C0F877
:101300000090FFF7E3FB074605E082E0FFF7DEFB16
:10131000C01B02287DD830688007F7D420784007AA
:1013200068D5DFF8BCB100270BF1380BDBF8000003
:10133000C0000BD4DBF8001041F08051CBF8001056
:10134000DBF80000012700F080500090684E306804
:10135000C00510D4306840F480703060FFF7B6FBF1
:10136000009005E0FFF7B2FB0099401A022850D820
:101370003068C005F6D55A4EA068683601280FD0EF
:101380000528306810D020F001003060306820F06F
:1013900004003060A068B8B1FFF798FB00900FE040
:1013A000306840F00100F4E740F004003060F7E7F7
:1013B000FFF78CFB0099411A41F28830814266D8D0
:1013C00030688007F4D50EE0FFF780FB009007E05F
:1013D000FFF77CFB0099411A41F28830814256D8D0
:1013E00030688007F4D42FB1DBF8001021F0805171
:1013F000CBF80010A069D0B3DAF800205146C2F350
:101400008102022A4AD00228484607D0C8F8600064
:1014100000E03CE0FFF75AFB04463BE04746C8F8D3
:101420006000FFF753FB064605E000BFFFF74EFBE9
:10143000801B02282BD828688001F7D4D4E9070143
:101440000843A16A2B4A490802EB0141626A41EA5A
:101450008211084394F82C1040EA01612048001FD3
:10146000016001203866FFF731FB044605E034E0F7
:10147000FFF72CFB001B022809D828688001F7D54C
:101480002BE000BFFFF722FB001B022802D903203C
:10149000BDE8F88F28688001F4D41EE00128F7D059
:1014A0000868E26900F48001914214D1226A00F0D8
:1014B0003F0191420FD147F6C071626A01409142EB
:1014C00009D1A26A00F44031914204D1E16A00F0EE
:1014D0007060884201D00120DAE70020D8E70000E0
:1014E000083802400038024000004742800E474260
:1014F000007000400000FFFF10B5401EB0F1807F7B
:1015000001D3012010BD4FF0E02460610F2160176E
:1015100003F044F90020A06107202061002010BDE5
:101520007047704770B590F83C20012A32D00124F2
:1015300080F83C40022280F83D2003685A689D688C
:1015400022F070060A6832435A60134B02689A42CE
:1015500014D0B2F1804F11D0104B9A420ED0104BE4
:101560009A420BD00F4B9A4208D00F4B9A4205D0AB
:101570000E4B9A4202D00E4B9A4204D1496825F094
:1015800080031943916080F83D40002180F83C10B1
:10159000084670BD022070BD0000014000040040FC
:1015A00000080040000C00400004014000400140E1
:1015B0000018004010B5040003D094F83D0010B1AD
:1015C00007E0012010BD002084F83C00204600F018
:1015D0000DF8022084F83D00211D206800F020FF56
:1015E000012084F83D00002010BD000008B500680F
:1015F0000B49884212D10B48016841F00201016099
:101600000068002200F00200009011461D20FFF744
:10161000C9FCBDE808401D20FFF7B6BC08BD0000AE
:1016200000040040403802400168CA6842F00102EC
:10163000CA600068816801F00701062903D00168CB
:1016400041F0010101600020704770B5044690F838
:101650003C00012817D0012584F83C50022084F872
:101660003D002068826822F0770222F47F42826087
:101670000868502830D00DDC20284DD005DC98B308
:1016800010283BD148E0022070BD302844D04028CB
:1016900034D139E0602828D0702806D0B0F5805FBA
:1016A0002CD0B0F5005F29D10AE0CB68D1E9012147
:1016B000206800F026FF2068816841F0770109E08A
:1016C000CB68D1E90121206800F01BFF2068816808
:1016D00041F48041816011E0CA684968206800F0E7
:1016E000E5FF5021206807E016E0CA6849682068D5
:1016F00000F0EDFF6021206800F00DFF84F83D5000
:10170000002084F83C0070BDCA684968206800F079
:10171000CDFF40212068EFE7226801461046EBE745
:10172000704770B50446006801694FF00005C94371
:10173000890715D4C168C943890711D4E91E01611D
:1017400001202077206880698007204602D0FFF7BB
:10175000E7FF04E000F0CAF8204600F05FF92577C3
:1017600020680169C943490717D4C168C9434907BB
:1017700013D46FF004010161022020772068806992
:1017800010F4407F204602D0FFF7CAFF04E000F0CB
:10179000ADF8204600F042F9257720680169C94379
:1017A000090716D4C168C943090712D46FF00801AC
:1017B0000161042020772068C0698007204602D09C
:1017C000FFF7AEFF04E000F091F8204600F026F9A4
:1017D000257720680169C943C90617D4C168C94380
:1017E000C90613D46FF0100101610820207720682A
:1017F000C06910F4407F204602D0FFF791FF04E05B
:1018000000F074F8204600F009F925772068016996
:10181000C943C90708D1C168C943C90704D1891E92
:101820000161204600F01EF920680169C9430906DC
:1018300009D4C168C943090605D46FF0800101616C
:101840002046FFF76DFE20680169C943490609D4A7
:10185000C168C943490605D46FF0400101612046C3
:1018600000F098F920680169C94389060BD4C16862
:10187000C943890607D46FF0200101612046BDE805
:101880007040FFF74EBE70BD70B586B0044614219F
:101890006846FEF7F1FC1249206888421ED11148C3
:1018A0000025016841F0080101600068022400F091
:1018B000080005904FF480408DE831000A4E0394F3
:1018C000694630460494FFF705F8A0038DE831001F
:1018D000CDE9035469463046FEF7FCFF06B070BD03
:1018E0000008004030380240000C0240704770B5DC
:1018F000044690F83C000D4601280DD0012684F8DE
:101900003C60022084F83D0042B1042A18D0082A25
:101910002AD00C2A4DD139E0022070BD206800F099
:1019200003FE2068816941F00801816120688169B6
:1019300021F004018161206881692A69114311E065
:10194000206800F021FE2068816941F40061816116
:101950002068816921F480618161206881692A6938
:1019600041EA0221816124E0206800F043FE206802
:10197000C16941F00801C1612068C16921F0040119
:10198000C1612068C1692A69114311E0206800F033
:1019900065FE2068C16941F40061C1612068C169C8
:1019A00021F48061C1612068C1692A6941EA02218C
:1019B000C16184F83D60002084F83C0070BD10B522
:1019C000040003D094F83D0010B107E0012010BDE1
:1019D000002084F83C00204600F00CF8022084F837
:1019E0003D00211D206800F01BFD012084F83D0012
:1019F000002010BD08B500680649884208D1064895
:101A0000016841F004010160006800F004000090EA
:101A100008BD000000080040403802407047000048
:101A200010B504460068012200F05EFD0B492068F5
:101A3000884202D00A49884203D1416C41F40041F6
:101A400041642068816801F00701062903D001681C
:101A500041F001010160002010BD000000000140C4
:101A60000004014010B5414C6188B1F5FA7F7BD28A
:101A70003F4900680968884276D14FF480413D486B
:101A8000FFF717F894ED100A94ED0F1ADFED3A0AFC
:101A90003A4A30EE411A00EEC10AB2EE041A84ED61
:101AA000100AC0EE010AD4ED071A51EE810AC4ED06
:101AB0000B0AE08801EE100AB8EE411A31EE201A46
:101AC000BCEEC11A11EE100A94ED0C1A80B271EE40
:101AD000202AC4ED0C2A94ED0E1A30EEC12A01EE34
:101AE000100A84ED0D2AB8EE411A94ED053A03EE82
:101AF000201A94ED043A03EE221AD4ED062A02EEDF
:101B0000821ABCEEC11A11EE100A81B2E180C4ED56
:101B10000E0A608800EE900A02EB8002F8EE600A7E
:101B2000C2ED000A00EE901A1549F8EE600A01EBCA
:101B30008001C1ED000AD4ED030A1249F8EEE00A73
:101B400001EB8001C1ED000A0F4901EB8001C1EDFD
:101B5000001A0E4901EB8001401C81ED000A9FED47
:101B60000C0A608084ED0F0A10BD00000000002008
:101B70009000002000180240CDCCCC3C14A80120DD
:101B8000E4AF012084BF012054C70120B4B7012075
:101B90000000000070472DE9F05F074600680E4620
:101BA00000EB4114D4F808054FF0040B420701EB99
:101BB00086004FF0050A4FF0100807EBC00508D566
:101BC000C4F808B5D4F80C0540F00200C4F80C05C0
:101BD00030E0D4F80805800601D5202028E0D4F8AC
:101BE00008054FF0080900070FD5D4F80C0540F0A0
:101BF0000200C4F80C0585F85DA0C4F80885C4F897
:101C00000895386802F029FA14E0D4F80805400570
:101C100010D5D4F80C0540F00200C4F80C05386863
:101C200002F01BFAC4F8088585F85D904FF48060D7
:101C3000C4F80805D4F8080580050ED5D4F80C05BD
:101C400040F00200C4F80C05314604F5A164386880
:101C500002F003FA4FF4007090E0D4F808054FF05A
:101C60000001C0074FF0010237D0386930B1A86CCD
:101C7000D4F81035C3F31203C01AE86485F85D2068
:101C8000A965C4F8082595F83F0020B1022802D0C4
:101C900003280FD01AE0D4F80C0540F00200C4F875
:101CA0000C05314604F5A164386802F0D6F9C4F891
:101CB00000800BE0D4F8000540F00050C4F80005A7
:101CC00085F85C2031463846FEF76CFF15F8500F5A
:101CD00080F001002870BDE8F09FD4F80805800767
:101CE00035D5D4F80C0520F00200C4F80C0595F8A1
:101CF0005D000223012808D0052809D006280AD053
:101D0000082808D003281FD015E085F85C2012E0D1
:101D100085F85CA00FE0A86D401CA865032813D9C6
:101D2000A96585F85CB0D4F8000520F0804040F04B
:101D30000040C4F80005C4F8083595F85C20314629
:101D40003846FEF72FFFC6E785F85C30EBE7D4F89E
:101D50000805000614D5D4F80C0540F00200C4F8BC
:101D60000C05A86D3146401CA865062085F85D006D
:101D700004F5A164386802F070F980202060AAE7B9
:101D8000D4F80805C006A6D595F83F00032803D06F
:101D900020B1022802D011E0A96505E0A9653869E3
:101DA00060B9032085F85D00D4F80C0540F002000E
:101DB000C4F80C053146386802F04FF9C4F80885BC
:101DC00089E72DE9F047026802EB4114D4F80825B1
:101DD0004FF00403520709D5C4F80835D4F80C05B0
:101DE00040F00200C4F80C05BDE8F087D4F80825DF
:101DF00001EB810596064FF0000200EBC5054FF0A0
:101E0000020C15D52023C4F8083595F83D30012B78
:101E1000EAD185F83D2085F85CC0D4F80C2542F065
:101E20000202C4F80C250068BDE8F04702F015B9BD
:101E3000D4F8086577064FF0010611D585F85D30B6
:101E400085F83D60AA65D4F80C2542F00202C4F87A
:101E50000C25006804F5A16402F0FFF8402010E0B2
:101E6000D4F80875BF050ED5D4F80C2542F002024F
:101E7000C4F80C25006804F5A16402F0EEF84FF4F4
:101E800000702060B0E7D4F80875FF070FD0AA658E
:101E9000D4F80C2542F00202C4F80C25006804F5C1
:101EA000A16402F0DAF8266085F85D609CE7D4F85A
:101EB00008754FF005095FEA07784FF008070DD560
:101EC000C4F80875D4F80C2542F00202C4F80C25B9
:101ED000006802F0C2F885F85D9085E7D4F80885BF
:101EE0004FF0100A5FEAC86818D5AA65032285F882
:101EF0005D2095F83D2022B995F83C200AB985F877
:101F00003D60D4F80C2542F00202C4F80C250068AC
:101F100004F5A16402F0A1F85046B2E7D4F80885B0
:101F20005FEA08680FD5D4F80C2542F00202C4F825
:101F30000C25006804F5A16402F08FF8062085F8EE
:101F40005D0080209DE7D4F808855FEA485812D5E7
:101F5000D4F80C2542F00202C4F80C25006804F500
:101F6000A16402F07AF8C4F800A04FF48060206009
:101F700085F85D7038E7D4F80875BF0796D5D4F8B2
:101F80000C7527F00207C4F80C7595F85D70012FE9
:101F90000AD0032F17D0042F15D0052F16D0062FE7
:101FA00017D0082F15D027E085F85C6095F83F2002
:101FB000022A01D0032A1FD195F8512082F0010294
:101FC00085F8512018E085F85CC015E085F85C9034
:101FD00012E0AE6D761CAE65032E03D9AA6585F8B6
:101FE0005C3001E085F85CC0D4F8002522F0804226
:101FF00042F00042C4F80025C4F808C595F85C20FA
:10200000FEF7D0FDF0E67CB504680546D4F8400440
:102010000190D4F8400420F02E0000900198800731
:102020000DD50198C00706D0A06920F00051A1612C
:102030002846FEF751FD009840F0020000900198FC
:10204000000732D5009840F0080000900198400742
:102050001DD5A869022803D0E86801280CD00FE03C
:102060000198C0F341400228286803D0012102F002
:10207000E5F905E00221FAE74EF66020C4F8040411
:102080002846FEF7F3FE2846FEF726FD0DE028461B
:10209000FEF7E8FED4F8400420F02E00C4F8400417
:1020A0002868816941F0005181610198800600989B
:1020B00002D540F020000090C4F840047CBD000030
:1020C0002DE9F041024600680646016AC1F3434328
:1020D00001F00F07C1F30A14022B25D1002C23D0E5
:1020E00007EB870102EBC105696C00291CD0224671
:1020F00002F0C3F9686C20446864E86C2044E8642A
:1021000006EB4710D0F81015084A11420CD0D0F851
:10211000001521F0804141F00041C0F8001515F88C
:10212000500F80F001002870BDE8F0810000F81F1A
:10213000FEE7000010B504490448FEF766FB0249BB
:10214000491E087010BD00004500002018650008F9
:102150002DE9F04186B014216846FEF78DF8374826
:102160000024016841F080010160016801F08001F4
:102170000591016841F004010160016801F004016A
:102180000591016841F001010160016801F0010160
:102190000591016841F002010160016801F002014E
:1021A0000591016841F008010160016801F0080132
:1021B0000591016841F0400101600068204F00F086
:1021C00040000590002210213846FEF779FCDFF828
:1021D00074804FF4C046002231464046FEF770FC42
:1021E0000220CDE90004694638460294FEF772FBEE
:1021F000012515480095CDE9010469461348FEF70D
:1022000069FB10200090CDE90154694638460394DB
:10221000FEF760FB0096CDE9015469464046039401
:10222000FEF758FB002211460620FEF7BBFE0620F3
:10223000FEF7AAFE06B0BDE8F0810000303802408B
:102240000008024000180240000031100000024067
:1022500010B586B0002412480094019402940394AF
:1022600004940E49059401604AF21041C0E901143A
:10227000C721C0E903148461FFF79CF94FF4805033
:10228000009069460648FFF7E0F9049404A9044861
:102290000594FFF747F906B010BD000000040040A8
:1022A0009000002010B58AB0002407941C216846D5
:1022B0000894FDF7E1FF1448124901601521C0E9B7
:1022C00001144FF4C871C0E903148461FFF777FB70
:1022D000079407A90C480894FFF724F96020CDE97A
:1022E000000402940822694607480494FFF7FFFAA5
:1022F0000C2269460448FFF7FAFA0348FFF7C4FACC
:102300000AB010BD00080040D000002010B5002227
:102310000B490C4800F0ABFC08B1FEF775FA0A490E
:10232000084801F0F9FC08B1FEF76EFA054801F023
:1023300036FD002803D0BDE81040FEF765BA10BD99
:10234000B53D00087CD1012068000020014801F063
:1023500013BC00007CD10120FEE770470148FEF766
:1023600069BC000048D5012070477047FEF7B2BD38
:1023700030B593B030216846FDF77EFF14210CA8DC
:10238000FDF77AFF1A480025016841F0805101608D
:10239000006800F0805011901648016821F4404117
:1023A00041F4804101600068022400F44040119033
:1023B00001200090000401908001CDE90640042036
:1023C0000890A820CDE9090407200B906846FEF785
:1023D000E5FE0F20CDE90C0480200E904001CDE9F0
:1023E0000F0502210CA8FEF70FFE13B030BD000050
:1023F00040380240007000400548016841F4700117
:10240000016003494FF000608039086070470000A8
:1024100088ED00E00148FFF784B90000900000203B
:10242000F0B50268254C264D264E274F274B4FF01E
:10243000804CA04209D0604507D0A84205D0B042E8
:1024400003D0B84201D0984204D122F0700E4A68FD
:1024500042EA0E02A0421BD0604519D0A84217D014
:10246000B04215D0B84213D0984211D0184DA842AE
:102470000ED0184DA8420BD0174DA84208D0174DCA
:10248000A84205D0164DA84202D0164DA84203D14D
:1024900022F44075CA682A434D6922F080022A431B
:1024A00002608A68C2620A688262A04201D09842D1
:1024B00001D10969016301214161F0BD00000140C2
:1024C0000004004000080040000C004000040140EF
:1024D0000040014000440140004801400018004015
:1024E000001C00400020004010B501F01F03012136
:1024F000046A99408C430462016A9A401143016264
:1025000010BD10B5846842EA032224F47F440A43D4
:102510002243826010BD826822F070020A4342F0BA
:102520000701816070470000F0B5026A22F00102E5
:102530000262036A42688469124E24F073050C68D3
:102540002C4323F002058B682B430D4DA84201D08C
:10255000B04205D123F00807CB683B4323F00403C6
:10256000A84201D0B04205D14D6922F44072154312
:102570008A692A4342608461496841630362F0BD0D
:102580000000014000040140F0B5026A22F0100290
:102590000262026A436884690D6824F4E64444EAEE
:1025A00005248D6822F0200242EA05120F4D104EDC
:1025B000A84201D0B04206D1CF6822F0800242EAA0
:1025C000071222F04002A84201D0B04207D14D6963
:1025D00023F4406343EA85038D6943EA850343603E
:1025E0008461496881630262F0BD0000000001401F
:1025F00000040140F0B5026A22F480720262026AAD
:102600004368C46922F4007224F073050C68124E0A
:102610002C438D6842EA05220E4DA84201D0B042FB
:1026200006D1CF6822F4006242EA072222F48062D7
:10263000A84201D0B04207D14D6923F4405343EA88
:1026400005138D6943EA05134360C4614968C1639A
:102650000262F0BD000001400004014030B5026A92
:1026600022F480520262046A4268C3690D6823F44E
:10267000E64343EA05238D6824F4005444EA053414
:10268000084DA84202D0084DA84204D14D6922F459
:10269000804242EA85124260C36149680164046273
:1026A00030BD0000000001400004014010B5036A85
:1026B000046A24F001040462846924F0F00444EA0A
:1026C000021423F00A020A438461026210BD10B5AD
:1026D000036A23F0100303628369046A23F47043DE
:1026E00043EA023224F0A00343EA0111826101624D
:1026F00010BD10B500224FF6FF7300EB8204B4F852
:102700008043240409D49A4205D000EB820041F4AE
:102710000041C0F88013D0B210BD521CD2B20B2AB7
:10272000EBD31A46F7E77FB51C46012501AE00231F
:10273000009586E80E0002232A46214600F094FB0D
:1027400004B0002070BD7FB51D4690F81D33089C75
:1027500003B100240123CDE90031CDE90224022395
:102760000022294600F080FB04B0002070BD10B5A7
:1027700000F095FA002010BD8278012A07D10222CC
:10278000027401224274002242828182C2820022AB
:10279000114600F00FB87FB51C46012501AE00239D
:1027A000009586E80E002A46214600F05DFB04B045
:1027B000002070BD70B504460120A3780546012BAA
:1027C0000CD0022B09D1204600F013F9002158B19A
:1027D000032809D0022800D1A57070BDA160A28194
:1027E00025760221A17070BDA570217670BD7FB5E0
:1027F0001D4690F81D33089C03B100240123CDE948
:102800000031CDE9022400231A46294600F02CFBB2
:1028100004B0002070BD1FB500231446CDE900317F
:102820000822CDE902231A46214600F01DFB04B020
:10283000002010BDFEF70CB870B50546002005F568
:102840004D7500BF00EB800404EBC00405EB4404AD
:10285000E67B0A348E4201D0FF2909D1A67996423F
:1028600001D0FF2A04D1E4799C4206D0FF2B04D08A
:10287000401CC0B20228E5D3FF2070BD0B2907D24F
:1028800000EB8100B0F88013C1F30E01C0F8801393
:102890000020704730B48578029C012D0FD141F0A3
:1028A000800101740621417403214282B1EB122F91
:1028B00002D140F2094100E000218182C482224617
:1028C00030BC1946FFF776BF0A8803781A440A809D
:1028D000017808447047F8B50E4600F11C050091D8
:1028E00004462B464FF400720021FFF7D3FF070088
:1028F00005D13246294604F54D7001F0CFF838462F
:10290000F8BD38B50D460091044600F58E734FF4BE
:1029100080720021FFF7BEFF002839D194F81C1106
:1029200084F8221394F81D1184F82313B4F81E11AF
:10293000A4F8241394F8201184F8261394F8211194
:1029400084F8271394F8221184F8281394F823119B
:1029500084F82913082D1BD9B4F82411A4F82A13DC
:10296000B4F82611A4F82C13B4F82811A4F82E13E7
:1029700094F82A1184F8301394F82B1184F8311349
:1029800094F82C1184F8321394F82D1184F8331331
:1029900038BDF8B51C461646009341F4407200F568
:1029A0008E731D460021FFF775FF002814D169784A
:1029B000032911D129788A1EA24200D81446002189
:1029C000A2B2AD1C04E06B5C891C06F8013B89B225
:1029D0009142F8D300213170F8BD01004FF00000A2
:1029E00004D0012901D0022901D002207047012022
:1029F00070472DE9F84F04460125007E0B262F462F
:102A00004FF009084FF007094FF0050B4FF00D0A82
:102A10000C2819D2DFE800F0AF060E26313D4961DF
:102A20006C7D8A9B627904F110012046FFF7F3FE6A
:102A3000022012E06179204600F095F9012804D0C7
:102A4000042872D0022870D095E0207CE18A00F042
:102A5000800021B180283BD1032020768BE08028A4
:102A600014D02FE0D4F8BC03E0812379A28920465A
:102A7000A168FFF790FE0420EFE72179204600F0DF
:102A800072F9012802D0052841D057E084F8188057
:102A900071E000976379A2892046A168FFF7A7FE3D
:102AA000D4F8BC03E0810620D7E76179204600F026
:102AB0005AF9012806D0052807D0022808D0042892
:102AC00009D058E084F8189055E00C2020761EE0DC
:102AD00084F818B04FE026764CE0002223791146A6
:102AE0002046FFF758FED4F8BC03E0810820B4E785
:102AF0002179204600F037F9012804D0042824D099
:102B0000052804D037E084F818A0002533E0032519
:102B100031E000970022637911462046FFF767FEF7
:102B2000D4F8BC03E0810A2097E70EE061792046E3
:102B300000F019F9012804D00228A7D0042804D0F5
:102B400019E0002584F818A015E0267613E0607ED1
:102B5000401CC0B26076022805D8204600F07BF900
:102B60002776A77007E0D4F8C823062120469047AF
:102B70000020607602252846BDE8F88FFEB50446A1
:102B8000012640780025374604F58E7208286CD25D
:102B9000DFE800F004161D434A535762082120461F
:102BA000FFF7AFFE002860D194F82903A071677089
:102BB00094F81D130091CDE9015094F81C3319E0ED
:102BC00012212046FFF79DFE30BB022033E0012199
:102BD000204601F0BAF8F8B90220FFF72BFE84F87E
:102BE0001C7303206070A07994F81D13CDE90015C3
:102BF0003B46029021798022204600F045FFA079D3
:102C000094F81D130091CDE9015094F81C336179BB
:102C10000022204600F038FF27E009212046FFF778
:102C20005AFE10BB042006E0B4F836132046FFF726
:102C300052FED0B90520607017E094F830130625D5
:102C400002E094F83113072521B1FF232046FFF756
:102C5000A0FE50B9657008E094F8321321B1FF234B
:102C60002046FFF796FE00B900263046FEBD70B53F
:102C70000D46040011D084F8C0230020C4F8780366
:102C8000C4F87C032046FDF797FD0DB1C4F8C85386
:102C9000204600F07BF8002070BD022070BD10B50A
:102CA000D0F8C403FDF733FFBDE81040FFF795BE31
:102CB00010B5017821B190F81F13012909D00AE05D
:102CC000012180F81E13D0F8C82322B104219047B7
:102CD00001E002210170002010BD10B5044600F093
:102CE000BAF821792046FFF7C9FD61792046FFF740
:102CF000C5FD002084F81E03D4F8C82312B10521B5
:102D000020469047204600F09DF8032020700020C8
:102D100010BD10B5C820FDF79BFD002010BDD0F8F8
:102D2000C403FDF7EEBE10B50124D0F8C403FDF7CF
:102D3000DEFE20B1012805D0022803D101E00024E5
:102D400000E00224204610BDD0F8C40301EB81014D
:102D500000EBC10090F83B1011B190F850007047A3
:102D600090F851007047D0F8C403FDF7C3BED0F807
:102D7000BC13491CC0F8BC1301780B2905D1D0F84D
:102D80007813002901D089690847704710B50446B7
:102D900090F8C003F0B9104810490222C0F8C042B0
:102DA000C4F8C40301600C2181600121C1600021CD
:102DB0000161C0E906210162C1624163FDF7D3FFF1
:102DC00008B1FDF721FD0448FDF78EFE01462046BF
:102DD00000F025F8002010BD48D501200000044077
:102DE000FEB508AF97E870008DE87000D0F8C40316
:102DF000FDF79FFEBDE8FE40FFF7EFBD002180F824
:102E00001F137047012180F81F13704710B5D0F8C9
:102E1000C403FEF72FF8BDE81040FFF7DEBDC0F891
:102E2000BC137047D0F8C40301EB810100EBC10073
:102E300090F83B1011B180F8502001E080F851204B
:102E40000020704710B5D0F8C403FEF71AF8BDE8AB
:102E50001040FFF7C2BD10B5D0F8C403FEF727F845
:102E6000BDE81040FFF7B9BD2DE9FF410DF128087D
:102E700098E8F0008DE8F000D0F8C403FDF793FE69
:102E800004B0BDE8F041FFF7A8BD03460220D3F827
:102E90007813C9692AB1012A05D189791846FFF743
:102EA0006BBCC979FAE77047D0F878030549C06967
:102EB000416505498165012100F8501F817000209E
:102EC0007047000055534243504030202DE9F84FE1
:102ED0000746D0F8780301263546C4694FF00B0A3F
:102EE0004FF00A0B94F850004FF009094FF0070813
:102EF0000C2845D2DFE800F0D20611252E48527585
:102F00007EA7AFCB84F86110022084F850000095B2
:102F100063791F2204F1540159E061793846FFF7C3
:102F200022FF012802D002287ED03FE0E06D002879
:102F300029D094F86000000601D503204BE005205D
:102F400049E0237962893846D4F88C10FFF7EBFB0F
:102F5000042040E021793846FFF705FF01284FD1D2
:102F60006289E06D90420CD9D4F88C10801A11441B
:102F7000C4F88C10E0656BD023793846FFF7D3FB9B
:102F80008CE00020E06563E0009563792289384693
:102F9000D4F88C10FFF7D7FB06201CE06179384687
:102FA000FFF7E1FE012804D00228C8D0052815D07B
:102FB00074E02289E06D9042E3D9D4F88C10801A35
:102FC0001144C4F88C10E06542D00095637938460E
:102FD000FFF7B9FB62E084F850005FE084F850B07E
:102FE0005CE023790D2204F178013846FFF79BFB62
:102FF0000820F0E721793846FFF7B5FE012802D016
:1030000005281DD04AE004F8505F3846A570D7F86F
:103010007813CC692179FFF782FE0D280CD1214964
:10302000A06F884208D100E036E0A16DE06F8842D1
:1030300002D194F8840008B102262FE000262DE08A
:1030400084F850902AE000223846FFF71EFF38B976
:1030500084F8508022E001223846FFF716FF10B1B5
:10306000042811D01AE061793846FFF76DFEC0F1EF
:103070000100C2B261793846FFF7D4FE21790022FF
:103080003846FFF7CFFEDBE784F850A006E038466D
:1030900000F015F8060001D184F850503046BDE824
:1030A000F88F000055534253A1220274FE2242744D
:1030B0000022428282820122C282FFF77BBB212151
:1030C0000174FF214174002141828182C1820A463C
:1030D000FFF770BB70B5D0F878130125CC69A17BE0
:1030E00021B1022902D003292ED127E02146FFF782
:1030F000DBFF00210546032801D01DB124E0002597
:10310000216004E02068022801D9022001E0207833
:10311000401C2060002002230CE000BF00EB800276
:1031200002EBC00204EB8202401C82F8923082F86B
:10313000C110C0B222688242F0D805E00021FFF73A
:103140001BFB08B9E07BA073284670BD10B5144680
:10315000D0F878230078D3690B2801D0022010BD65
:1031600001EB810000EBC10003EB8001342220461B
:103170009031FDF768F8002010BD70B50546D0F815
:1031800078030026C469617939B12846FFF7EFFA60
:1031900061792846FFF772FB6671217939B12846BB
:1031A000FFF7E5FA21792846FFF768FB2671D5F885
:1031B0007803C06920B102F043FED5F87803C661F8
:1031C000002070BDFEB50546D0F8780302245023D8
:1031D000017906222846FFF72FFB0146FF287DD004
:1031E000284600F0A7FDE00102F0C2FFD5F87813F1
:1031F0000446C86195F8200300EB800101EBC00094
:1032000005EB400090F84A0301060CD5E07195F8F3
:10321000200300EB800101EBC00005EB4000B0F89B
:103220004C0360810BE0A07195F8200300EB800156
:1032300001EBC00005EB4000B0F84C03208195F88D
:10324000200300EB800101EBC00005EB400090F88B
:10325000520301060CD5E07195F8200300EB8001C4
:1032600001EBC00005EB4000B0F8540360810BE0B7
:10327000A07195F8200300EB800101EBC00005EB85
:103280004000B0F8540320810020A4F8F800A4F80E
:10329000FA0020736073A073A1792846FFF729FA1A
:1032A0006071E1792846FFF724FA20712846FFF77C
:1032B000FBFD682104F19000FCF7DEFF208995F802
:1032C0001D1302260091CDE9016095F81C33A27907
:1032D0006179284600F0D8FB608900E016E095F897
:1032E0001D130091CDE9016095F81C33E279217935
:1032F000284600F0C9FB217900222846FFF792FDFD
:10330000617900222846FFF78DFD00242046FEBD8E
:103310002DE9F0470746D0F878034FF0010AC46959
:10332000207B10B101282DD12CE1B4F8F8002168E0
:1033300001254FF0000888426FD200EB800101EBBD
:10334000C00004EB8000022680F89150B4F8F80029
:103350004FF0050900EB800101EBC00104EB810295
:1033600092F8901009290DD2DFE801F0050C1F88B2
:103370000DB10C0CFF00042082F89000D7F8BC03BC
:10338000C4F8FC0000E1C1B238469F3200F08CF96D
:1033900040B9B4F8F80000EB800101EBC00004EB89
:1033A0008000B6E002287DD099E0C1B2384600F036
:1033B000ABFA10B1022831D091E0B4F8F80000EB7C
:1033C000800101EBC00004EB800090F8921011B175
:1033D00080F8C15001E080F8C180B4F8F8200320E3
:1033E00002EB820101EBC20104EB810181F8900044
:1033F000B4F8F81001EB810202EBC10104EB81018A
:1034000081F89180B4F8F81001EB810202EBC10160
:1034100004EB810181F89280B6E0AAE0B4F8F800EC
:1034200000EB800101EBC00004EB800090F89210EB
:10343000022902D080F8C15001E080F8C180B4F8C0
:10344000F81001EB810202EBC10104EB810181F86C
:103450009090B4F8F80000EB800101EBC00004EBA1
:10346000800080F89150B4F8F80000EB800101EB87
:10347000C00004EB800080F8926085E0C1B238465D
:10348000943200F0BBF900288CD1B4F8F80000EBBE
:10349000800101EBC00004EB800080F89050B4F88C
:1034A000F81000E008E001EB810202EBC10104EB3F
:1034B000810181F8918031E0B4F8F81001EB8102CC
:1034C00002EBC10104EB810181F890905CE0C1B294
:1034D00038469C3200F0CFF920B1022823D00428CE
:1034E0002DD051E0B4F8F80000EB800101EBC000F2
:1034F00004EB800090F89C10062901D002290BD122
:10350000D7F8BC13D4F8FC20891A42F21072914209
:1035100002D280F8906037E080F8905034F8F80FCD
:10352000401C208030E0B4F8F810082001EB810244
:1035300002EBC10104EB810181F8900024E0B4F8B2
:10354000F80000EB800101EBC00004EB800080F884
:103550009050B4F8F80000EB800101EBC00004EBE0
:10356000800080F891600FE0FFE7401CA4F8F800AD
:103570000AE0A4F8F8802573D7F8C823022138465A
:10358000904701E04FF0000A5046BDE8F087000088
:103590002DE9F843D0F8782301EB810303EBC10355
:1035A000D269012502EB8304082794F890302E4657
:1035B000052B22D000224FF00508062B02D0072B46
:1035C0002AD10CE0002300921A4600F0D7F80BE055
:1035D00002280FD018E000BF84F890701BE0002391
:1035E00000921A4600F0B6F90028F1D184F89060F4
:1035F000002511E084F890800EE004F19C0200F0B8
:103600003AF920B1022807D00428E5D004E004F8F4
:10361000906F0220607002252846BDE8F8832DE9EE
:10362000F8430446D0F87803089E0F46C56994F81D
:103630001E0360B120780B2809D107EB870000EB4F
:10364000C70005EB800090F89010012902D00220FD
:10365000BDE8F8830621297380F89010A5F8FA7068
:1036600039462046009600F089F8D4F8BC8340F231
:1036700071204FF00109464309E0D4F8BC13A1EBD7
:103680000800B0EB061F0CD894F81E0348B1394669
:103690002046FFF77DFF0128EFD085F80C90002031
:1036A000D6E785F80C90D2E72DE9F0411546D0F821
:1036B000782302270026D4694FF0010894F852209D
:1036C000012A02D0022A56D126E024208022E06579
:1036D00084F860200A2284F86220C4F86360C4F889
:1036E0006760A4F86B60122284F86320490184F8B3
:1036F000641084F8656084F8666084F8670084F874
:103700006860022084F8508084F8520004F11000B0
:103710000127C4F88C002EE0FFF7D8FB07002AD160
:1037200022212846FCF7A8FDD4F88C00007800F090
:103730001F006870D4F88C00007840092870D4F815
:103740008C004078000602D585F8028000E0AE705B
:1037500054F88C0F10228168C5F80310C068C5F8B2
:103760000700216805F10C001031FCF76CFD2068A2
:10377000006AC5F81D003846BDE8F0812DE9F0412A
:10378000154602461F46D2F878330220069EDC69B1
:1037900094F85230012B06D0022B2DD1BDE8F04118
:1037A0001046FFF793BBB4F8980010217043E06512
:1037B000802084F860000A2084F8620004F163002D
:1037C000FCF75AFD282084F86300280E84F8650071
:1037D000280C84F86600280A84F8670084F868508A
:1037E000300A84F86A0084F86B60012004F8500FF6
:1037F0000220A0700120E763BDE8F08170B5164695
:10380000D0F878230125D46994F85220012A02D0F7
:10381000022A2ED11AE00820E065802084F860009A
:103820000A2084F86200102104F16300FCF724FDF3
:10383000252084F86300012084F85000022084F8D9
:10384000520004F11000C4F88C0012E0FFF73EFBB8
:1038500005000ED154F88C0F4188427849BA00789F
:1038600062F31F4141EA006030602068C08840BABE
:10387000B080284670BD70B5154602460E46D2F897
:1038800078130220CC6994F85210012914D002292F
:1038900011D131461046FFF719FB00280BD154F81F
:1038A0008C1F897801F00F0129702168097B6970EC
:1038B0002168497BA97070BD0E258020E56584F8DC
:1038C00060000A2084F86200102104F16300FCF714
:1038D000D3FC032084F86300700184F864000020A6
:1038E00084F8650084F8660084F8675084F86800FE
:1038F000012084F85000022084F8520004F11000E6
:10390000C4F88C00012070BD70B502460220D2F8C8
:103910007833DC6994F85230012B06D0022B18D191
:10392000BDE870401046FFF7D1BA0025E56584F880
:1039300060500A2084F86200102104F16300FCF753
:103940009BFC84F86350012004F8500F0220A07003
:10395000012070BD2DE9F041154602461F46D2F800
:1039600078330220069EDC6994F85230012B06D091
:10397000022B2DD1BDE8F0411046FFF7A7BAB4F8ED
:10398000980010217043E065002084F860000A2050
:1039900084F8620004F16300FCF76EFC2A2084F8CE
:1039A0006300280E84F86500280C84F86600280A55
:1039B00084F8670084F86850300A84F86A0084F854
:1039C0006B60012004F8500F0220A0700120E76313
:1039D000BDE8F08100207047D0F878230078D269E4
:1039E0000B2808D101EB810000EBC10002EB800045
:1039F00090F8910008B100207047012070472DE930
:103A0000F8430446D0F87803089E0F46C56994F839
:103A10001E0360B120780B2809D107EB870000EB6B
:103A2000C70005EB800090F89010012902D0022019
:103A3000BDE8F8830721297380F89010A5F8FA7083
:103A4000394620460096FFF785FFD4F8BC8340F244
:103A500071204FF00109464309E0D4F8BC13A1EBF3
:103A60000800B0EB061F0CD894F81E0348B1394685
:103A70002046FFF78DFD0128EFD085F80C9000203F
:103A8000D6E785F80C90D2E7FEB508AF97E870004E
:103A90008DE87000FFF7A4F90020FEBD2DE9F84184
:103AA00005460B782B704B786B704B886B800B79CD
:103AB0002B714B796B718B79AB71CB790846EB71BC
:103AC0000027097A2972092A54D90921ADF8001072
:103AD0004BE06946FEF7F8FE4178042943D107EB35
:103AE000870101EBC70105EB4108017888F80A104E
:103AF000417888F80B10817888F80C10C17888F824
:103B00000D10017988F80E10417988F80F1081792D
:103B100088F81010C17908F10A0488F81110017AA8
:103B20002172002615E06946FEF7CEFE4178052990
:103B30000FD108EBC60102780A7542784A7582787F
:103B40008A75C278CA7582880A838279761C8A76D9
:103B5000F6B22179B14204D96A88BDF800108A42D0
:103B6000E1D87F1CFFB2022F04D26988BDF8002083
:103B70009142AED8BDE8F881FEB5022204468DF828
:103B8000002094F81F13002031B9237823B1237843
:103B9000032B01D0032323702378002508270D264B
:103BA0000C2B13D2DFE803F0061317ABB64694557F
:103BB0005C6471A494F81E03002807D001202070D3
:103BC000C820FEF737FE2046FFF720F9A2E00129C2
:103BD00000D122709EE06420FEF72CFE2046FFF705
:103BE000A2F884F81D030520207000212046FEF76E
:103BF00080FD607180212046FEF77BFD207101462B
:103C0000A07994F81D230092CDE9015094F81C335B
:103C100080222046FFF738FFA07994F81D13009109
:103C2000CDE9015094F81C33617900222046FFF75A
:103C30002BFF6FE02046FEF7A1FF00286AD184F831
:103C4000205394F83303012801D007204CE027705B
:103C500060E0D4F8C823D2B3012120469047F6E7AC
:103C600094F83913204600F07EF880BB09203BE031
:103C700094F83B034FF00A05800604D50121204645
:103C800000F07FF818BB257044E0D4F87C13F1B144
:103C9000C4F8785394F8432304EB8001D1F87413EB
:103CA0000B79934201D1C4F87813401C10F0FF0047
:103CB000F2D0D4F87803C8B1816820468847A8B903
:103CC00006202070D4F8C82303212046904721E025
:103CD000D4F8780350B10169204688478DF8000078
:103CE0009DF80000B0B90B20207013E0267011E0A1
:103CF000D4F8780370B14169204688470AE020462D
:103D0000FCF75AFDD4F8780320B1C16820468847F3
:103D1000C4F878530020FEBD002211B1D0F87C33E6
:103D200013B10222104670470123C0F87C33C0F85B
:103D30007413F7E70246002092F838338B4202D919
:103D400082F820137047022070478278012A06D13A
:103D5000002202740523437441828282C2820022BF
:103D60001146FEF727BD8278012A06D1002202748F
:103D70000923437441828282C28200221146FEF7E7
:103D800019BD8278012A06D10022027403234374EC
:103D900041828282C28200221146FEF70BBD10B51D
:103DA0000446FFF74FF801212046FEF7B2FF00203E
:103DB00010BD000001290AD00548022906D00429B7
:103DC00003D0052903D1032100E0012101707047D0
:103DD000490000200020704730B58DB01546012401
:103DE00049B1012909D0022910D0032918D004248F
:103DF0000DB0204630BD0024FAE701466A460E4861
:103E0000FFF7A4F90028F3D1019813E001466A46B0
:103E10000948FFF79BF90028EAD1BDF8080009E03E
:103E200001466A460448FFF791F90028E0D1BDF841
:103E30000800400A2860DEE77CD1012030B58FB051
:103E4000054600930B46014601240C48FFF7E7FBAB
:103E500068B101AA29460948FFF778F99DF81100D1
:103E6000042806D0282804D03A2803D101E00024F1
:103E700000E003240FB0204630BD00007CD10120BB
:103E800010B5014601240348FFF7A6FD00B1002448
:103E9000204610BD7CD1012030B58FB0054600937F
:103EA0000B46014601240E48FFF7A9FD78B101AA8F
:103EB00029460B48FFF74AF99DF8110004280AD05B
:103EC000272806D0282806D03A2805D103E0002468
:103ED00002E0022400E003240FB0204630BD0000C1
:103EE0007CD1012070B5044606990A9E049D0D9868
:103EF000012916D0E06840F04000E060204600F064
:103F00002BF8A16B1EB321F48031A163012D07D1E1
:103F1000A16841F00601A160A16841F02001A16003
:103F200070BDA16B21F48031A163E168094A1140A1
:103F3000E160E16821F44011E160012803D1E0680B
:103F400040F48010E060204600F006F8DEE741F41F
:103F50008031DAE7BFFFBDFF01220C4902E0521CAD
:103F60008A420BD80369002BF9DA026942F0010298
:103F70000261012204E0521C8A4201D903207047E9
:103F80000369DB07F7D1002070470000400D0300F4
:103F9000816821F0010181600020704700EB411031
:103FA000064AC0F81025D0F8001521F0804141F0F4
:103FB0000041C0F800150020704700000000088094
:103FC00008B5D0F8402422F02E020092D20405D485
:103FD000012909D1009941F4805103E021B90099E8
:103FE00021F48051C0F84014002008BD816841F0E0
:103FF0000101816000207047002110220261054A02
:10400000491C914201D9032070470369DB06F7D4AC
:1040100000207047400D03000022202343EA811155
:1040200001610549521C8A4201D903207047036986
:104030009B06F7D400207047400D0300D0F8080419
:1040400080B2704708B5D0F840040090C0F34140FA
:1040500008BD406900F00100704700EB4111D1F844
:1040600000254FF47A73C2F381426AB1022A0BD061
:10407000D1F8002542F08042C1F80025D0F81004A4
:1040800010F47F0F2ED009E0D1F8002542F08042D5
:10409000C1F80025C06A10F47F0F07D0D1F80005E1
:1040A00040F00040C1F8000500207047D1F800053D
:1040B00020F00040C1F80005D1F8000540F00040B4
:1040C000C1F80005D1F8000520F40040C1F8000552
:1040D000012002E0401C9842E6D8D1F80025002AD1
:1040E000F8DBE1E7D1F8000520F00040C1F8000559
:1040F000D1F8000540F00040C1F80005D1F80005F6
:1041000020F40040C1F80005012002E0401C984264
:10411000CAD8D1F80025002AF8DBC5E72DE9F0431D
:104120000026DDE9078500EB4114771EDDF82490B9
:10413000C4F80875CDB1012D32D0022D15D0032D54
:1041400027D00126D0F8187401F00F0C012101FAD4
:104150000CF10F43C0F81874816941F0007181615E
:1041600010062AD54FF4004028E040F29D47C4F8DD
:104170000C75170605D500BFD4F80C7547F4807789
:1041800018E0C76BFF05DDD5D4F80C7547F0600764
:1041900010E040F29D67C4F80C751706ECD4D1E727
:1041A00040F22527C4F80C751706CBD5D4F80C754A
:1041B00047F4C077C4F80C75C4E70020B8F1020FCB
:1041C00018D000214FF0FE5707EA83534FF4F04711
:1041D00007EAC22213434FF4402202EA8542134306
:1041E000C9F30A02134303430B43C4F80035032DFC
:1041F00003D008E04FF40031E4E7D4F8000540F0C4
:104200000050C4F800053046BDE8F083D0F814042F
:1042100080B27047F8B54C78C56B4FF48073ED05EC
:104220004FF0000715D50D799DB912B1012A07D0BD
:104230000FE04D79012D0CD12146FFF7AFFE8CE048
:1042400000EB4415D5F80C6526F06006C5F80C6542
:104250004F710E695EB10D892E44761EB6FBF5F6E0
:10426000B6B29E4204D91E462B020B6100E0012625
:10427000CB78CBB30B897343C1F810306FF0604536
:10428000C3F3120305EAC6452B438D7A4FF0C046AF
:1042900006EA45752B4300EB44140546C4F8103577
:1042A00012B1CB68C4F81435D5F80834D4F80055E9
:1042B00043F3000325F00055C4F80055D4F8005529
:1042C0005B1C45EA4373C4F80035D4F80055244B11
:1042D0001D601D6825F080451D60CD78002D1D688E
:1042E00005D045F4004504E0FFE70B69C6E725F477
:1042F00000451D601D6845F000451D601B68C4F841
:10430000003552BBCA7842BB0A6932B3CB7933B1AC
:10431000012B0FD0022B02D0032B17D10AE0D21CA5
:10432000C36AC2F38F029BB293420FD2826942F0FA
:1043300020020AE0D21CD0F81034C2F38F029BB2E4
:10434000934203D2826942F08062826100970A8AB6
:1043500093B24A78C96800F00EF90020F8BD000059
:10436000500000202DE9F0410025DDF818801746A7
:104370000446C0F8005E806B40F40010A063A06BA0
:1043800020F40020A063A06B20F48020A063E06BE9
:10439000C00501D5032B04D0D4F8000420F004019B
:1043A00003E0D4F8000440F004012046C4F80014EF
:1043B0001021FFF731FE2046FFF71EFE0020461EAB
:1043C00007E000BF04EB4011C1F80865C1F80C55C7
:1043D000401C8742F6D801212046FFF7F1FDC82096
:1043E000FCF736FAA5616661E06BC00506D54FF4AF
:1043F000007060620C48A0620C4804E0802060629B
:104400000B48A0620B48C4F80001B8F1000F03D1BB
:10441000A06940F01000A061A06907490843A061AD
:104420000020BDE8F0810000000200010003E00070
:1044300080006000E0004000080020A3D0F80024C5
:1044400022F00302C0F80024D0F8002401F0030396
:104450001A43C0F80024012902D0022903D006E043
:104460004BF6803101E041F27071C0F80414002075
:1044700070474169806908407047D21C10B59308A5
:10448000002200F5805002E00468521C10C19A42DC
:10449000FAD3084610BD38B50446D0F8400420F0E1
:1044A0002E00009040F48070C4F84004642004F5AD
:1044B0008864FCF7CDF9009820F4807020600A2011
:1044C000FCF7C6F9002038BD10B5C26822F0C04222
:1044D000C260012902D029B1012010BDC16841F09C
:1044E000005102E0C16841F08041C1603220FCF718
:1044F000AFF9002010BD000030B5044680680025EB
:1045000020F00100A06010212046FFF785FD204625
:10451000FFF772FD5FF0000004EB4011D1F80025B9
:1045200022F0802242F08042C1F80025401C0F2872
:10453000F2D900204FF47A7304EB4011D1F8002532
:1045400022F4004242F04042C1F800256D1C9D4219
:1045500003D8D1F80025002AF8DB401C0F28EBD93E
:104560004FF0FF30C4F814046061A06840F001000F
:10457000A060002030BD10B5029C64B9DB1C9C0813
:1045800000EB0230002300F5805002E004C9026015
:104590005B1CA342FAD3002010BDFEE72DE9F04FCB
:1045A00089B00A2253A1564801F09AF800287DD11B
:1045B000554D544C554E05F57A6705F5FA6906F1E7
:1045C000640807F5FA6A06F1C80BA062A0884FF4E8
:1045D000FA71484300EE100AA06A05EB8000B8EEBD
:1045E000400AD0ED000A30EE200A80ED000A10EEFD
:1045F000100AFBF75FFE41EC100B444853EC102B04
:1046000043A1643800F0B6F8A16A59F82100FBF71D
:1046100051FE41EC100B3EA153EC102B3B4800F037
:10462000A9F8A06A57F82000FBF744FE41EC100BF4
:10463000364853EC102B36A1643000F09BF8A16A89
:104640005AF82100FBF736FE41EC100B2F4853ECD3
:10465000102B2FA1C83000F08DF82F48A16A50F818
:104660002100FBF727FE41EC100B29A153EC102B86
:104670002A4800F07FF82AA228490DF1140C08926C
:1046800028A38CE80A0127A0009026A2CDE90162A8
:1046900024A11E4BCDE903B1643B23A2642103F5A1
:1046A000FA7000F04FF81D49643100E020E0244822
:1046B000FBF7EDFD0120FCF7CBF8A06A401CA062DF
:1046C000B0F5FA7F82DB1E48FBF7EDFD0D4B02468D
:1046D00024331B490A4801F058F9207040B9606A38
:1046E00030B1074800F0BCFF012009B0BDE8F08FF1
:1046F0000020FAE754455354322E747874000000B9
:10470000441100200000002014A8012088CF0120BF
:10471000252E33660000000054C70120B4D00120CC
:104720000A00000009000000257325732573257316
:1047300025732573257325732573257300000000E9
:10474000742100200FB41CB50246002007AC0029DC
:104750000BD0491ECDE90021054B6A46214606983B
:1047600000F0FEF8009A002111701CBC5DF814FBEB
:104770008F5000080FB4084B10B504A902AA039883
:1047800000F0EEF8044602A9002000F08BFC204661
:1047900010BC5DF814FB0000A55000080907090EC5
:1047A000002804DB00F1E02080F80014704700F0DE
:1047B0000F0000F1E02080F8141D704702E008C8E7
:1047C000121F08C1002AFAD170477047002001E08B
:1047D00001C1121F002AFBD1704700002DE9FF5FC5
:1047E00082B00021DDE90430020DDDF840B0034362
:1047F00018D044F61050A2F2FF324243151411981B
:1048000001281FD0A5EB0B00401C5FEA000A4FF007
:1048100000064E4FDFF83891B046504615D5CAF124
:10482000000413E0119801244AA3012801D16FEA82
:104830000B010298119AC0E90031C0E9024206B0AA
:10484000BDE8F09FCBF10000DFE704460021404ABD
:10485000491842EB0450CDE9001012E0E00707D000
:1048600032463B4640464946FBF713FE80468946A2
:1048700032463B4610461946FBF70BFE06460F46EE
:104880006410002CEAD1DDE90401DDE90023BAF16E
:10489000000F06DAFBF7FDFD42464B46FBF7F9FD3C
:1048A00005E0FBF768FE42464B46FBF764FE044614
:1048B0000E460022284BFBF7E5FE03D84FF0FF30F1
:1048C000014607E00022254B20463146FBF73AFD22
:1048D000FBF7C0FE102409E0002C0ADB0A220023AB
:1048E000FBF780FC039B30321A55641E50EA01022C
:1048F000F2D1641C039AC4F111031444119A012AE1
:1049000003D0012208430DD10AE0084304D000205F
:104910004FF0110B119072E7A3EB0B056D1E0DE02C
:104920005B4504DD4FF0000205F1010504E003DA08
:104930004FF00002A5F10105002AECD00298119970
:10494000C0E90231C0E9004579E7000000001440E9
:104950000000F03F300000000000F0430000E03FA6
:104960002DE9FF4F95B09B468946064600250FE28C
:10497000252877D100242746F84A0121059400E034
:10498000044316F8013F203B01FA03F01042F7D12F
:1049900030782A2811D06FF02F033078A0F1300240
:1049A000092A16D8059A44F0020402EB820203EBAE
:1049B00042021044761C0590EFE759F8042B05924B
:1049C000002A03DA504244F40054059044F00204F3
:1049D000761C30782E2816D116F8010F44F0040406
:1049E0002A280DD06FF02F023078A0F13003092B68
:1049F00009D807EB870302EB4303C718761CF3E7DC
:104A000059F8047B761C30786C280FD006DC4C28D3
:104A100017D068280DD06A2814D104E0742810D06B
:104A20007A280FD10DE044F400140AE044F4801415
:104A300001E044F440147278824202D104F58014FB
:104A4000761C761C307866280BD013DC582877D07B
:104A500009DC002875D04528F6D04628F4D0472830
:104A60001AD19DE118E0632835D0642879D06528F3
:104A700012D195E1702873D008DC6728F1D069283D
:104A80006FD06E280DD06F2806D1B5E073282CD0DA
:104A9000752875D0782874D05A46179990476D1CA0
:104AA00075E1C4F30250022809D003280DD0D9F8CB
:104AB000001004280DD00D6009F1040967E1D9F850
:104AC0000010EA17C1E90052F6E7D9F800100D808E
:104AD000F2E70D70F0E719F8041B8DF800100020C4
:104AE0008DF80100EA46012003E059F804AB4FF0CD
:104AF000FF3061074FF0000102D40DE008F1010121
:104B00008846B9420FDA8045F8DB1AF80810002908
:104B1000F4D108E008F1010188468142FADB1AF875
:104B200008100029F6D105985B46A0EB080721463E
:104B30003846179A00F094FA284400EB080507E07D
:104B40004DE029E10DE01AF8010B5A4617999047FC
:104B5000B8F10108F7D25B4621463846179A13E1AF
:104B600042E00A220092C4F302524FF0000A022AE5
:104B700008D059F804CB032A4FEAEC710AD00DE0B3
:104B800029E02AE009F1070121F00702F2E802C159
:104B9000914609E00FFA8CFC4FEAEC71042A03D12C
:104BA0004FFA8CFC4FEAEC71002907DA0A46002123
:104BB000DCF1000C61EB02012D2202E0220504D59C
:104BC0002B228DF80420012203E0E20701D02022ED
:104BD000F7E7904659E00A2102E010220DE010218B
:104BE0004FF0000A00910BE010224FF0000A44F051
:104BF00004040827009203E008224FF0000A009204
:104C0000C4F30252022A05D059F804CB0021032A2A
:104C100008D009E009F1070121F00702F2E802C11A
:104C2000914605E01FFA8CFC042A01D10CF0FF0C20
:104C30004FF00008220728D5702806D0009B83F08B
:104C4000100353EA0A0305D00EE040228DF8042039
:104C5000012208E05CEA010206D030228DF804202F
:104C60008DF8050002229046009B83F0080353EA6A
:104C70000A030AD15CEA010201D1620705D530229C
:104C80008DF804204FF001087F1E582804D034A06E
:104C900003900EA802900DE036A0F9E75346604657
:104CA000009AFBF79FFA84460398825C0298401EA4
:104CB000029002705CEA0100F0D1029806A9081A7D
:104CC00000F1200A600702D524F4803400E00127B7
:104CD000574502DDA7EB0A0000E0002000EB0A01C7
:104CE000009005984144401A0590E00306D45B46C5
:104CF0002146179A059800F0B3F90544002706E00D
:104D000001A85A46C05D179990476D1C7F1C474506
:104D1000F6DBE0030CD55B462146179A059800F0B8
:104D20009FF9054404E030205A46179990476D1CBE
:104D30000099481E00900029F5DC08E002980299CD
:104D40005A460078491C0291179990476D1CBAF198
:104D50000001AAF1010AF1DC65E100000928010067
:104D600030313233343536373839616263646566E1
:104D700000000000303132333435363738394142A3
:104D8000434445460000000000F058F90544761CF5
:104D9000307800287FF4ECAD19B02846BDE8F08FDC
:104DA000620700D4062709F1070222F0070CFCE88D
:104DB0000223E14603F000485FEA080C02D00FF23C
:104DC000702C0DE05FEA045C02D50FF2682C07E05E
:104DD0005FEAC47C02D00FF2602C01E0AFF2700CED
:104DE0004FF0FF3823F00043CDF850C065280CD0B9
:104DF00006DC452809D046281DD047283DD13DE096
:104E0000662818D067287ED138E00021112F01DBF9
:104E1000112000E0781CCDE9000106A90EA8FFF7DB
:104E2000DDFCDDE90F010E9A03910021009207F1EC
:104E3000010A04914DE04FF000400097CDE90110C8
:104E400006A90EA8FFF7CAFCDDE90F0203920E9B2C
:104E500011990022DDF80CA00093049211B9791C7D
:104E600000EB010AB7EB0A0004D4C0F1FF3007F1F0
:104E7000010A0490AAEB0700019044E0012F00DA38
:104E800001270021112F01DD112000E03846CDE976
:104E9000000106A90EA8FFF7A1FCDDE90F010E9A9B
:104EA0000391002104910092BA4621070CD4039982
:104EB000514500DA8A46BAF1010F05DD009AAAF1E0
:104EC0000101515C302908D0B84202DA10F1040F18
:104ED00006DA0121CDE9011015E0AAF10101E9E7A7
:104EE000002805DC049901440491AAEB000102E0CA
:104EF000411C514500DD8A460499401A401C01902E
:104F00004FF000400290200704D40198504501DB87
:104F1000CDF8048000208DF84F0002980DF14F0766
:104F2000B0F1004F25D02B200E9002984FF00208D0
:104F300000280CDA404202902D200E9007E00A2152
:104F40000298FBF7CAF93031029007F8011DB8F159
:104F50000001A8F10108F2DC02980028EFD1791EC7
:104F60000E980870307800F0200040F0450007F8F7
:104F7000020D12A8C01B00F107081498007800B1B8
:104F8000012000EB0A01019801EBE0710598414412
:104F9000401A401E0590E00306D45B462146179A4E
:104FA000059800F05DF805441498007818B15A4649
:104FB000179990476D1CE00324D55B462146179A4C
:104FC000059800F04DF805441CE00498002807DB24
:104FD000DDE90301884203DD0098405C179901E098
:104FE000179930205A469047049805F10105401C56
:104FF00004900198401E019004D12E205A46179922
:1050000090476D1CBAF10001AAF1010ADDDC05E050
:1050100017F8010B5A46179990476D1CB8F100011B
:10502000A8F10108F4DC5B462146179A0598ABE627
:105030002D0000002B000000200000002DE9F041B1
:10504000044600251E461746880404D405E0394668
:105050002020B0476D1C641EF9D52846BDE8F081BC
:105060002DE9F041044600251E469046C80301D5AF
:10507000302700E02027880404D505E04146384663
:10508000B0476D1C641EF9D52846BDE8F0814A681A
:10509000002A06D00A68531C0B6010704868401E36
:1050A000486070470A68531C0B601070704700001E
:1050B00010B504460020E070401E2063204601F039
:1050C0009EF808B1042010BD04F2322000F0D2FF97
:1050D000A0F52A41553901D0032010BD94F83400C1
:1050E000E92805D0EB2814D194F83600902810D187
:1050F00004F16A0000F0B3FF0749B1EB002F06D0BE
:1051000004F1860000F0ABFF0449884201D1002081
:1051100010BD022010BD00000046415446415433EA
:10512000F0B50022144D134605EB021426685EB15B
:105130000768BE4209D166688768BE4205D1A46887
:105140004669B44204D000E00123521C022AEBD38A
:10515000022A01D069B904E04BB9022907D0122014
:10516000F0BD05EB02108089B0F5807F01D00020F2
:10517000F0BD1020F0BD00000CD8012030B500219A
:10518000054B0C4603EB01121568854200D11460F3
:10519000491C0229F6D330BD0CD801200268C06A30
:1051A000938952895343B1FBF3F1001D04C81AB12E
:1051B000914203D3891AF8E7002070470068084439
:1051C00070478269891E921E8A4201D8002070476A
:1051D000C26A408901FB002070472DE9F041056853
:1051E0000F00804606D000F053FE022809D20120AD
:1051F000BDE8F0812E6916B1A869B04207D8012632
:1052000005E0411CF4D0A9698142F1D83E463446FC
:10521000A869641CA04202D80224022E0AD32146A7
:10522000404600F035FE38B10128E1D0411CDFD006
:10523000B442EDD10020DBE74FF0FF363246214685
:10524000284600F0F5FF30B957B1224639462846C6
:1052500000F0EEFF20B101280FD001242046C7E75F
:105260002C61D5E90501891E884201D8401E68617C
:10527000287940F001002871F0E73446EEE700009D
:105280002DE9F0410E4624300D6804460B22202102
:1052900000F0AEFF0020014608272A5C401C202AAF
:1052A00012D92F2A0BD05C2A09D02E2A01D0B9425C
:1052B00014D30B2F22D02E2A20D10CE0401C2B5CC3
:1052C0002F2BFBD05C2BF9D028443060B1B1207873
:1052D000E5281FD020E008210B27DEE7802A03D332
:1052E000114B1A4412F8802C10A300E05B1C93F8B9
:1052F00000C0BCF1000F04D09445F7D10620BDE8F2
:10530000F081A2F16103192B01D8203AD2B2625484
:10531000491CC2E705202070202A01D8042000E0A3
:105320000020E0720020EAE73C650008222A2B2CCE
:105330003A3B3C3D3E3F5B5D7C7F0000401E0228C7
:1053400012D20A4901EB00118889B0F5807F05D09F
:1053500008B1401E80B2888110B103E00020FAE756
:105360000020086000207047022070470CD8012000
:105370002DE9F04104460021056800F0DFF800281F
:1053800026D12846E16900F03AFF02001FD1206AC9
:10539000017899B1C17A01F03F01A171C17A090781
:1053A0000FD404F124010B2610F8013B11F8017B06
:1053B000DB1B761E04D0002BF6D002E0042206E0B0
:1053C0002BB10021204600F005F80200D9D010468C
:1053D000BDE8F0812DE9F047054647690468C069DA
:1053E0008946203710B1B7F5001F02D30420BDE86D
:1053F000F087A189B7FBF1F201FB127100295FD19F
:10540000401CE861A9694FF0000819B3A0896289BE
:10541000B7FBF0F0521E104252D1284600F038FD82
:10542000064601281FD9701C36D0A069B04241D869
:10543000B9F1000F12D02846A969FFF7CEFE060089
:105440000FD0012E0FD0701C26D0204601F020F87E
:1054500010BB0AE02089B0EB571F31D8C5F81C807B
:10546000C4E70720C3E70220C1E7A289002104F1B5
:10547000340000F0BDFE4FF0000831462046FFF733
:10548000A0FE4FF0010920630DE000BF84F80390F7
:10549000204600F0FDFF08B10120A8E7206B08F1CD
:1054A0000108401C206361894145EFD8216BA1EBC5
:1054B0000800206331462046AE61FFF782FEE861B6
:1054C0006F61A089B7FBF0F100FB1170204434300C
:1054D000286200208BE770B504460021066800F0C2
:1054E0002DF80DE03046E16900F089FE50B9206AE0
:1054F0000078E52809D040B101212046FFF76AFF76
:105500000028EFD0042807D007E03046E16900F01A
:1055100076FE050003D00FE0072005460CE02022B0
:105520000021206A00F064FE0B2204F12401206AAD
:1055300000F054FE0120F070284670BD2DE9F041C6
:1055400004680F460646B1F5001F3CD2F8063AD172
:105550007761B56825B92078032806D3A56A25B1F7
:105560006089A18900FB01F812E02089B0EB571F88
:1055700029D9A06A12E0304600F08AFC0546401C9A
:105580001FD0022D1FD3A069A8421CD9A7EB080782
:1055900047452946EFD22046FFF713FEC6E90650DD
:1055A00088B1A189B7FBF1F10844F061A089B7FB8C
:1055B000F0F100FB11702044343030620020BDE86F
:1055C000F0810120FBE70220F9E70000084910B54F
:1055D0000B5C002253B901220A540A1801EB800027
:1055E000127A40680168104688470246104610BD8E
:1055F0002CD8012030B4054C231804EB80001B7A12
:10560000406804691846A44630BC60472CD8012085
:1056100030B4054D2C1805EB8000247A406885686D
:105620002046AC4630BC60472CD80120044A1118F3
:1056300002EB8000097A4068426808461047000083
:105640002CD8012030B4054D2C1805EB8000247AAD
:105650004068C5682046AC4630BC60472CD8012065
:1056600038B5044600F04AF900280CD169462046B6
:1056700000F037FF002806D12069FFF75FFE002801
:1056800001D10021216038BD2DE9F74181B090465C
:1056900002980090684600F071FC040003D50B20CE
:1056A00004B0BDE8F0810D4E002756F824501DB11E
:1056B0002846FFF763FD2F700198002800D007707F
:1056C00046F8240002D0B8F1010F01D00020E7E72E
:1056D000002201A902A800F031FAE1E764000020ED
:1056E0002DE9F74394B005000BD002F03F06324697
:1056F000694615A800F022FA04004FF0000804D013
:10570000F3E0092017B0BDE8F0830098049004A8E6
:10571000159900F057FB04000ED19DF83F000006DC
:1057200001D5062408E0700801D0012100E0002125
:1057300004A8FFF7F5FC044616F01C0F5DD04FF0EF
:105740000109C4B1042C10D100206B4902E0401CB7
:10575000022804D201EB00121268002AF7D10228B5
:1057600007D004A8FFF7B7FE044646F008065CB170
:10577000BBE01224B9E09DF8160010F0110F47D1DC
:10578000700701D50824B0E0300747D500F0F4FBDE
:1057900007460C9839460E3000F02AFE0C98394620
:1057A000163000F025FE0C982021C1720C9900984B
:1057B00000F042FC074600220C99009800F004FE1D
:1057C0000C9800211C3000F013FE009981F8039022
:1057D00017B3D1F830900022394604A800F0BAFD82
:1057E000040009D14946009800F009FD0400009822
:1057F000A7F1010707610DD077E0ECBB9DF816001B
:10580000C10601D5042470E0B10703D5C00701D05B
:1058100007246AE0300701D546F040060098006B87
:1058200068620C98A862700801D0012100E0002194
:1058300004A800F0C1FB2861C0B30C99009800F0E7
:10584000FBFBA8600C981C3000F009FCC5F82C800C
:10585000E86000992960009905F130004FF480520A
:10586000C988A9802E7585F81580C5F8208000218B
:105870008146C5F8188000E037E000F0B9FCB006BA
:1058800035D5EE689EB3AE610098A96847898089D6
:1058900047430FE0284600F0FBFA0146012800D8F4
:1058A0000224481C03D0F61B24B105E021E00124AA
:1058B000F61B01E0BE42EDD8E961B4B900988289D7
:1058C000B6FBF2F302FB13628AB1FFF77AFC80B1F8
:1058D000009901238A89B6FBF2F202442A624878D1
:1058E0004946FFF795FE10B10124C5F80080204617
:1058F00008E70224F9E700000CD80120F8B50446B7
:10590000694600F0EEFD00280ED1217D4A060BD538
:1059100008060ED50098226A0123407804F1300170
:10592000FFF790FE08B10120F8BD207D00F07F0058
:10593000207500F021FB0646616A009800F05FFCCC
:105940000028F1D1A56A2946E87A40F02000E872E3
:10595000A268206800F038FD05F11C00E16800F045
:1059600047FD314605F1160000F042FD002105F12A
:10597000120000F045FD00980121C17000F044FDC7
:10598000217D01F0BF012175F8BD2DE9F04F88465A
:1059900089B00021196099461546044604A900F013
:1059A000A0FD002806D1607D002803D1207D80075E
:1059B00003D4072009B0BDE8F08FA0690127421980
:1059C0004FF0020A04F1300B824200D2C543ACE032
:1059D0000498A1698289B1FBF2F302FB1313002B37
:1059E00079D1B1FBF2F64089401E064018D129B1A9
:1059F000E06A38B12046FFF7D1FB07E0A06838B96C
:105A0000002100E0E1692046FFF7E7FB00287ED097
:105A100001282FD0411C58D0E061A16801B9A060D5
:105A2000207D00060BD50498226A01234078594650
:105A3000FFF708FEC0BB207D00F07F002075E16904
:105A40000498FFF7BEFBA8B1304400900498818908
:105A5000B5FBF1F1029141B3721841898A4201D933
:105A6000891B029140784146029B009AFFF7EAFDAC
:105A7000D0B903E084F815A002209BE7216A0098C2
:105A8000081A029988420AD204998A8900FB028185
:105A9000584600F0A3FB207D00F07F00207504989D
:105AA0008689029846432FE00FE0FFE7226A0099BB
:105AB0008A420ED0E268A16991420AD2407801235D
:105AC0005946009AFFF7A4FD18B16775012071E7E8
:105AD00001E0009820620498A1698089B1FBF0F28E
